{
  "_format": "hh-sol-artifact-1",
  "contractName": "MmaSPv2",
  "sourceName": "contracts/MmaSPv2.sol",
  "abi": [
    {
      "inputs": [],
      "stateMutability": "nonpayable",
      "type": "constructor"
    },
    {
      "inputs": [],
      "name": "ApprovalCallerNotOwnerNorApproved",
      "type": "error"
    },
    {
      "inputs": [],
      "name": "ApprovalQueryForNonexistentToken",
      "type": "error"
    },
    {
      "inputs": [],
      "name": "ApprovalToCurrentOwner",
      "type": "error"
    },
    {
      "inputs": [],
      "name": "ApproveToCaller",
      "type": "error"
    },
    {
      "inputs": [],
      "name": "BalanceQueryForZeroAddress",
      "type": "error"
    },
    {
      "inputs": [],
      "name": "MintToZeroAddress",
      "type": "error"
    },
    {
      "inputs": [],
      "name": "MintZeroQuantity",
      "type": "error"
    },
    {
      "inputs": [],
      "name": "OwnerQueryForNonexistentToken",
      "type": "error"
    },
    {
      "inputs": [],
      "name": "TransferCallerNotOwnerNorApproved",
      "type": "error"
    },
    {
      "inputs": [],
      "name": "TransferFromIncorrectOwner",
      "type": "error"
    },
    {
      "inputs": [],
      "name": "TransferToNonERC721ReceiverImplementer",
      "type": "error"
    },
    {
      "inputs": [],
      "name": "TransferToZeroAddress",
      "type": "error"
    },
    {
      "inputs": [],
      "name": "URIQueryForNonexistentToken",
      "type": "error"
    },
    {
      "anonymous": false,
      "inputs": [
        {
          "indexed": true,
          "internalType": "address",
          "name": "owner",
          "type": "address"
        },
        {
          "indexed": true,
          "internalType": "address",
          "name": "approved",
          "type": "address"
        },
        {
          "indexed": true,
          "internalType": "uint256",
          "name": "tokenId",
          "type": "uint256"
        }
      ],
      "name": "Approval",
      "type": "event"
    },
    {
      "anonymous": false,
      "inputs": [
        {
          "indexed": true,
          "internalType": "address",
          "name": "owner",
          "type": "address"
        },
        {
          "indexed": true,
          "internalType": "address",
          "name": "operator",
          "type": "address"
        },
        {
          "indexed": false,
          "internalType": "bool",
          "name": "approved",
          "type": "bool"
        }
      ],
      "name": "ApprovalForAll",
      "type": "event"
    },
    {
      "anonymous": false,
      "inputs": [
        {
          "indexed": true,
          "internalType": "address",
          "name": "previousOwner",
          "type": "address"
        },
        {
          "indexed": true,
          "internalType": "address",
          "name": "newOwner",
          "type": "address"
        }
      ],
      "name": "OwnershipTransferred",
      "type": "event"
    },
    {
      "anonymous": false,
      "inputs": [
        {
          "indexed": true,
          "internalType": "address",
          "name": "from",
          "type": "address"
        },
        {
          "indexed": true,
          "internalType": "address",
          "name": "to",
          "type": "address"
        },
        {
          "indexed": true,
          "internalType": "uint256",
          "name": "tokenId",
          "type": "uint256"
        }
      ],
      "name": "Transfer",
      "type": "event"
    },
    {
      "inputs": [
        {
          "internalType": "address",
          "name": "to",
          "type": "address"
        },
        {
          "internalType": "uint256",
          "name": "tokenId",
          "type": "uint256"
        }
      ],
      "name": "approve",
      "outputs": [],
      "stateMutability": "nonpayable",
      "type": "function"
    },
    {
      "inputs": [
        {
          "internalType": "address",
          "name": "owner",
          "type": "address"
        }
      ],
      "name": "balanceOf",
      "outputs": [
        {
          "internalType": "uint256",
          "name": "",
          "type": "uint256"
        }
      ],
      "stateMutability": "view",
      "type": "function"
    },
    {
      "inputs": [
        {
          "internalType": "uint256",
          "name": "tokenId",
          "type": "uint256"
        }
      ],
      "name": "getApproved",
      "outputs": [
        {
          "internalType": "address",
          "name": "",
          "type": "address"
        }
      ],
      "stateMutability": "view",
      "type": "function"
    },
    {
      "inputs": [
        {
          "internalType": "address",
          "name": "owner",
          "type": "address"
        },
        {
          "internalType": "address",
          "name": "operator",
          "type": "address"
        }
      ],
      "name": "isApprovedForAll",
      "outputs": [
        {
          "internalType": "bool",
          "name": "",
          "type": "bool"
        }
      ],
      "stateMutability": "view",
      "type": "function"
    },
    {
      "inputs": [],
      "name": "lockState",
      "outputs": [
        {
          "internalType": "enum MmaSPv2.locked",
          "name": "",
          "type": "uint8"
        }
      ],
      "stateMutability": "view",
      "type": "function"
    },
    {
      "inputs": [],
      "name": "marketCap",
      "outputs": [
        {
          "internalType": "uint256",
          "name": "",
          "type": "uint256"
        }
      ],
      "stateMutability": "view",
      "type": "function"
    },
    {
      "inputs": [
        {
          "internalType": "uint16",
          "name": "_quantity",
          "type": "uint16"
        }
      ],
      "name": "mint",
      "outputs": [],
      "stateMutability": "payable",
      "type": "function"
    },
    {
      "inputs": [
        {
          "internalType": "bytes",
          "name": "_privateSignature",
          "type": "bytes"
        }
      ],
      "name": "mint_free",
      "outputs": [],
      "stateMutability": "nonpayable",
      "type": "function"
    },
    {
      "inputs": [],
      "name": "name",
      "outputs": [
        {
          "internalType": "string",
          "name": "",
          "type": "string"
        }
      ],
      "stateMutability": "view",
      "type": "function"
    },
    {
      "inputs": [],
      "name": "owner",
      "outputs": [
        {
          "internalType": "address",
          "name": "",
          "type": "address"
        }
      ],
      "stateMutability": "view",
      "type": "function"
    },
    {
      "inputs": [
        {
          "internalType": "uint256",
          "name": "tokenId",
          "type": "uint256"
        }
      ],
      "name": "ownerOf",
      "outputs": [
        {
          "internalType": "address",
          "name": "",
          "type": "address"
        }
      ],
      "stateMutability": "view",
      "type": "function"
    },
    {
      "inputs": [],
      "name": "price_mint",
      "outputs": [
        {
          "internalType": "uint256",
          "name": "",
          "type": "uint256"
        }
      ],
      "stateMutability": "view",
      "type": "function"
    },
    {
      "inputs": [
        {
          "internalType": "contract IERC20",
          "name": "erc20Token",
          "type": "address"
        }
      ],
      "name": "reclaimERC20",
      "outputs": [],
      "stateMutability": "nonpayable",
      "type": "function"
    },
    {
      "inputs": [],
      "name": "renounceOwnership",
      "outputs": [],
      "stateMutability": "nonpayable",
      "type": "function"
    },
    {
      "inputs": [
        {
          "internalType": "address",
          "name": "from",
          "type": "address"
        },
        {
          "internalType": "address",
          "name": "to",
          "type": "address"
        },
        {
          "internalType": "uint256",
          "name": "tokenId",
          "type": "uint256"
        }
      ],
      "name": "safeTransferFrom",
      "outputs": [],
      "stateMutability": "nonpayable",
      "type": "function"
    },
    {
      "inputs": [
        {
          "internalType": "address",
          "name": "from",
          "type": "address"
        },
        {
          "internalType": "address",
          "name": "to",
          "type": "address"
        },
        {
          "internalType": "uint256",
          "name": "tokenId",
          "type": "uint256"
        },
        {
          "internalType": "bytes",
          "name": "_data",
          "type": "bytes"
        }
      ],
      "name": "safeTransferFrom",
      "outputs": [],
      "stateMutability": "nonpayable",
      "type": "function"
    },
    {
      "inputs": [
        {
          "internalType": "address",
          "name": "operator",
          "type": "address"
        },
        {
          "internalType": "bool",
          "name": "approved",
          "type": "bool"
        }
      ],
      "name": "setApprovalForAll",
      "outputs": [],
      "stateMutability": "nonpayable",
      "type": "function"
    },
    {
      "inputs": [
        {
          "internalType": "string",
          "name": "_value",
          "type": "string"
        }
      ],
      "name": "setBaseUri",
      "outputs": [],
      "stateMutability": "nonpayable",
      "type": "function"
    },
    {
      "inputs": [
        {
          "internalType": "string",
          "name": "_value",
          "type": "string"
        }
      ],
      "name": "setDefaultUri",
      "outputs": [],
      "stateMutability": "nonpayable",
      "type": "function"
    },
    {
      "inputs": [
        {
          "internalType": "enum MmaSPv2.locked",
          "name": "_value",
          "type": "uint8"
        }
      ],
      "name": "setLock",
      "outputs": [],
      "stateMutability": "nonpayable",
      "type": "function"
    },
    {
      "inputs": [
        {
          "internalType": "address",
          "name": "_value",
          "type": "address"
        }
      ],
      "name": "setPrivateSigner",
      "outputs": [],
      "stateMutability": "nonpayable",
      "type": "function"
    },
    {
      "inputs": [
        {
          "internalType": "bytes4",
          "name": "interfaceId",
          "type": "bytes4"
        }
      ],
      "name": "supportsInterface",
      "outputs": [
        {
          "internalType": "bool",
          "name": "",
          "type": "bool"
        }
      ],
      "stateMutability": "view",
      "type": "function"
    },
    {
      "inputs": [],
      "name": "symbol",
      "outputs": [
        {
          "internalType": "string",
          "name": "",
          "type": "string"
        }
      ],
      "stateMutability": "view",
      "type": "function"
    },
    {
      "inputs": [
        {
          "internalType": "uint256",
          "name": "tokenId",
          "type": "uint256"
        }
      ],
      "name": "tokenURI",
      "outputs": [
        {
          "internalType": "string",
          "name": "",
          "type": "string"
        }
      ],
      "stateMutability": "view",
      "type": "function"
    },
    {
      "inputs": [],
      "name": "totalSupply",
      "outputs": [
        {
          "internalType": "uint256",
          "name": "",
          "type": "uint256"
        }
      ],
      "stateMutability": "view",
      "type": "function"
    },
    {
      "inputs": [
        {
          "internalType": "address",
          "name": "from",
          "type": "address"
        },
        {
          "internalType": "address",
          "name": "to",
          "type": "address"
        },
        {
          "internalType": "uint256",
          "name": "tokenId",
          "type": "uint256"
        }
      ],
      "name": "transferFrom",
      "outputs": [],
      "stateMutability": "nonpayable",
      "type": "function"
    },
    {
      "inputs": [
        {
          "internalType": "address",
          "name": "newOwner",
          "type": "address"
        }
      ],
      "name": "transferOwnership",
      "outputs": [],
      "stateMutability": "nonpayable",
      "type": "function"
    },
    {
      "inputs": [],
      "name": "withdraw",
      "outputs": [],
      "stateMutability": "nonpayable",
      "type": "function"
    }
  ],
  "bytecode": "0x610326600955600a80546001600160a01b03191673bf52f5325c58f1865d43e270194a35fee183ebd517905566f8b0a10e470000600b55600c805460ff1916905560e0604052603160808181529062002aad60a03980516200006a91600d9160209091019062000171565b506040805160208101918290526000908190526200008b91600e9162000171565b503480156200009957600080fd5b50604080518082018252601281527153616c616864696e65205061726e6173736560701b6020808301918252835180850190945260058452645350524e5360d81b908401528151919291620000f19160029162000171565b5080516200010790600390602084019062000171565b5050600080555062000119336200011f565b62000254565b600880546001600160a01b038381166001600160a01b0319831681179093556040519116919082907f8be0079c531659141344cd1fd0a4f28419497f9722a3daafe3b4186f6b6457e090600090a35050565b8280546200017f9062000217565b90600052602060002090601f016020900481019282620001a35760008555620001ee565b82601f10620001be57805160ff1916838001178555620001ee565b82800160010185558215620001ee579182015b82811115620001ee578251825591602001919060010190620001d1565b50620001fc92915062000200565b5090565b5b80821115620001fc576000815560010162000201565b600181811c908216806200022c57607f821691505b602082108114156200024e57634e487b7160e01b600052602260045260246000fd5b50919050565b61284980620002646000396000f3fe6080604052600436106101b75760003560e01c8063715018a6116100ec578063a5330ac31161008a578063c87b56dd11610064578063c87b56dd146104b3578063e985e9c5146104d3578063ebff65351461051c578063f2fde38b1461053c57600080fd5b8063a5330ac31461045d578063b88d4fde1461047d578063c65ff5d21461049d57600080fd5b80638da5cb5b116100c65780638da5cb5b146103ea57806395d89b4114610408578063a0bcfc7f1461041d578063a22cb4651461043d57600080fd5b8063715018a61461039557806387c575e7146103aa5780638905fd4f146103ca57600080fd5b80632c135b9311610159578063466a18de11610133578063466a18de1461030e57806346be9c481461032e5780636352211e1461035557806370a082311461037557600080fd5b80632c135b93146102c35780633ccfd60b146102d957806342842e0e146102ee57600080fd5b8063095ea7b311610195578063095ea7b31461024b57806318160ddd1461026d57806323b872dd1461029057806323cf0a22146102b057600080fd5b806301ffc9a7146101bc57806306fdde03146101f1578063081812fc14610213575b600080fd5b3480156101c857600080fd5b506101dc6101d7366004612472565b61055c565b60405190151581526020015b60405180910390f35b3480156101fd57600080fd5b506102066105f9565b6040516101e8919061268d565b34801561021f57600080fd5b5061023361022e36600461259e565b61068b565b6040516001600160a01b0390911681526020016101e8565b34801561025757600080fd5b5061026b61026636600461242b565b6106e8565b005b34801561027957600080fd5b50600154600054035b6040519081526020016101e8565b34801561029c57600080fd5b5061026b6102ab366004612341565b6107a8565b61026b6102be36600461257c565b6107b3565b3480156102cf57600080fd5b5061028260095481565b3480156102e557600080fd5b5061026b610902565b3480156102fa57600080fd5b5061026b610309366004612341565b610afd565b34801561031a57600080fd5b5061026b610329366004612536565b610b18565b34801561033a57600080fd5b50600c546103489060ff1681565b6040516101e89190612665565b34801561036157600080fd5b5061023361037036600461259e565b610b85565b34801561038157600080fd5b506102826103903660046122ed565b610b97565b3480156103a157600080fd5b5061026b610bff565b3480156103b657600080fd5b5061026b6103c53660046122ed565b610c65565b3480156103d657600080fd5b5061026b6103e53660046122ed565b610cee565b3480156103f657600080fd5b506008546001600160a01b0316610233565b34801561041457600080fd5b50610206610e66565b34801561042957600080fd5b5061026b610438366004612536565b610e75565b34801561044957600080fd5b5061026b6104583660046123fe565b610ee2565b34801561046957600080fd5b5061026b610478366004612517565b610f91565b34801561048957600080fd5b5061026b610498366004612381565b61101f565b3480156104a957600080fd5b50610282600b5481565b3480156104bf57600080fd5b506102066104ce36600461259e565b611070565b3480156104df57600080fd5b506101dc6104ee366004612309565b6001600160a01b03918216600090815260076020908152604080832093909416825291909152205460ff1690565b34801561052857600080fd5b5061026b6105373660046124aa565b611189565b34801561054857600080fd5b5061026b6105573660046122ed565b61134c565b60006001600160e01b031982167f80ac58cd0000000000000000000000000000000000000000000000000000000014806105bf57506001600160e01b031982167f5b5e139f00000000000000000000000000000000000000000000000000000000145b806105f357507f01ffc9a7000000000000000000000000000000000000000000000000000000006001600160e01b03198316145b92915050565b6060600280546106089061272e565b80601f01602080910402602001604051908101604052809291908181526020018280546106349061272e565b80156106815780601f1061065657610100808354040283529160200191610681565b820191906000526020600020905b81548152906001019060200180831161066457829003601f168201915b5050505050905090565b60006106968261142e565b6106cc576040517fcf4700e400000000000000000000000000000000000000000000000000000000815260040160405180910390fd5b506000908152600660205260409020546001600160a01b031690565b60006106f382610b85565b9050806001600160a01b0316836001600160a01b03161415610741576040517f943f7b8c00000000000000000000000000000000000000000000000000000000815260040160405180910390fd5b336001600160a01b03821614801590610761575061075f81336104ee565b155b15610798576040517fcfb3b94200000000000000000000000000000000000000000000000000000000815260040160405180910390fd5b6107a3838383611459565b505050565b6107a38383836114c2565b6001600c5460ff1660018111156107da57634e487b7160e01b600052602160045260246000fd5b1461082c5760405162461bcd60e51b815260206004820152601660248201527f4572726f723a204d696e7420697320636c6f7365642e0000000000000000000060448201526064015b60405180910390fd5b8061ffff16600b5461083e91906126cc565b8034101561088e5760405162461bcd60e51b815260206004820152601960248201527f4572726f723a206d696e7420707269636520746f206c6f772e000000000000006044820152606401610823565b6009548261ffff166000546108a391906126a0565b106108f05760405162461bcd60e51b815260206004820152601760248201527f4e6f20656e6f756768206e66742072656d61696e696e670000000000000000006044820152606401610823565b6108fe338361ffff16611724565b5050565b6008546001600160a01b0316331461095c5760405162461bcd60e51b815260206004820181905260248201527f4f776e61626c653a2063616c6c6572206973206e6f7420746865206f776e65726044820152606401610823565b47730b6db6cc5e5c2b6c92be311c70bc654a7f2721be6108fc60646109828460036126cc565b61098c91906126b8565b6040518115909202916000818181858888f193505050501580156109b4573d6000803e3d6000fd5b5073a2892ff32a7ea6189c797db2beec87076b71bce26108fc60646109da8460046126cc565b6109e491906126b8565b6040518115909202916000818181858888f19350505050158015610a0c573d6000803e3d6000fd5b50733cd168bb4bc9c35d38d0b55b99d2584af6f1ebe66108fc6064610a328460146126cc565b610a3c91906126b8565b6040518115909202916000818181858888f19350505050158015610a64573d6000803e3d6000fd5b5073fb2408efdf8611e78ad5c39ad8c451b2eb1f7c256108fc6064610a8a8460146126cc565b610a9491906126b8565b6040518115909202916000818181858888f19350505050158015610abc573d6000803e3d6000fd5b5060405173f33c8ada3150eeb1f1935e6c1338e24cd2788703904780156108fc02916000818181858888f193505050501580156108fe573d6000803e3d6000fd5b6107a38383836040518060200160405280600081525061101f565b6008546001600160a01b03163314610b725760405162461bcd60e51b815260206004820181905260248201527f4f776e61626c653a2063616c6c6572206973206e6f7420746865206f776e65726044820152606401610823565b80516108fe90600d9060208401906121de565b6000610b908261173e565b5192915050565b60006001600160a01b038216610bd9576040517f8f4eb60400000000000000000000000000000000000000000000000000000000815260040160405180910390fd5b506001600160a01b031660009081526005602052604090205467ffffffffffffffff1690565b6008546001600160a01b03163314610c595760405162461bcd60e51b815260206004820181905260248201527f4f776e61626c653a2063616c6c6572206973206e6f7420746865206f776e65726044820152606401610823565b610c636000611873565b565b6008546001600160a01b03163314610cbf5760405162461bcd60e51b815260206004820181905260248201527f4f776e61626c653a2063616c6c6572206973206e6f7420746865206f776e65726044820152606401610823565b600a805473ffffffffffffffffffffffffffffffffffffffff19166001600160a01b0392909216919091179055565b6008546001600160a01b03163314610d485760405162461bcd60e51b815260206004820181905260248201527f4f776e61626c653a2063616c6c6572206973206e6f7420746865206f776e65726044820152606401610823565b6001600160a01b03811663a9059cbb336040517f70a082310000000000000000000000000000000000000000000000000000000081523060048201526001600160a01b038516906370a082319060240160206040518083038186803b158015610db057600080fd5b505afa158015610dc4573d6000803e3d6000fd5b505050506040513d601f19601f82011682018060405250810190610de891906125b6565b6040516001600160e01b031960e085901b1681526001600160a01b0390921660048301526024820152604401602060405180830381600087803b158015610e2e57600080fd5b505af1158015610e42573d6000803e3d6000fd5b505050506040513d601f19601f820116820180604052508101906108fe9190612456565b6060600380546106089061272e565b6008546001600160a01b03163314610ecf5760405162461bcd60e51b815260206004820181905260248201527f4f776e61626c653a2063616c6c6572206973206e6f7420746865206f776e65726044820152606401610823565b80516108fe90600e9060208401906121de565b6001600160a01b038216331415610f25576040517fb06307db00000000000000000000000000000000000000000000000000000000815260040160405180910390fd5b3360008181526007602090815260408083206001600160a01b03871680855290835292819020805460ff191686151590811790915590519081529192917f17307eab39ab6107e8899845ad3d59bd9653f200f220920489ca2b5937696c31910160405180910390a35050565b6008546001600160a01b03163314610feb5760405162461bcd60e51b815260206004820181905260248201527f4f776e61626c653a2063616c6c6572206973206e6f7420746865206f776e65726044820152606401610823565b600c805482919060ff19166001838181111561101757634e487b7160e01b600052602160045260246000fd5b021790555050565b61102a8484846114c2565b6001600160a01b0383163b1515801561104c575061104a848484846118d2565b155b1561106a576040516368d2bf6b60e11b815260040160405180910390fd5b50505050565b606061107b8261142e565b6110b1576040517fa14c4b5000000000000000000000000000000000000000000000000000000000815260040160405180910390fd5b60006110bb6119ca565b905080516000141561115757600d80546110d49061272e565b80601f01602080910402602001604051908101604052809291908181526020018280546111009061272e565b801561114d5780601f106111225761010080835404028352916020019161114d565b820191906000526020600020905b81548152906001019060200180831161113057829003601f168201915b5050505050611182565b80611161846119d9565b6040516020016111729291906125fa565b6040516020818303038152906040525b9392505050565b6001600c5460ff1660018111156111b057634e487b7160e01b600052602160045260246000fd5b146111fd5760405162461bcd60e51b815260206004820152601660248201527f4572726f723a204d696e7420697320636c6f7365642e000000000000000000006044820152606401610823565b600a5461121690839083906001600160a01b0316611b27565b60ff166001146112685760405162461bcd60e51b815260206004820152601c60248201527f4572726f723a20796f75277265206e6f742077686974656c6973742e000000006044820152606401610823565b6009546000546112799060016126a0565b106112c65760405162461bcd60e51b815260206004820152601760248201527f4e6f20656e6f756768206e66742072656d61696e696e670000000000000000006044820152606401610823565b6112cf33610b97565b156113415760405162461bcd60e51b8152602060048201526024808201527f4572726f723a20596f752063616e2774206d696e74206d6f726520666f72206660448201527f7265652e000000000000000000000000000000000000000000000000000000006064820152608401610823565b6108fe336001611724565b6008546001600160a01b031633146113a65760405162461bcd60e51b815260206004820181905260248201527f4f776e61626c653a2063616c6c6572206973206e6f7420746865206f776e65726044820152606401610823565b6001600160a01b0381166114225760405162461bcd60e51b815260206004820152602660248201527f4f776e61626c653a206e6577206f776e657220697320746865207a65726f206160448201527f64647265737300000000000000000000000000000000000000000000000000006064820152608401610823565b61142b81611873565b50565b60008054821080156105f3575050600090815260046020526040902054600160e01b900460ff161590565b600082815260066020526040808220805473ffffffffffffffffffffffffffffffffffffffff19166001600160a01b0387811691821790925591518593918516917f8c5be1e5ebec7d5bd14f71427d1e84f3dd0314c0f7b2291e5b200ac8c7c3b92591a4505050565b60006114cd8261173e565b80519091506000906001600160a01b0316336001600160a01b031614806114fb575081516114fb90336104ee565b8061151657503361150b8461068b565b6001600160a01b0316145b90508061154f576040517f59c896be00000000000000000000000000000000000000000000000000000000815260040160405180910390fd5b846001600160a01b031682600001516001600160a01b03161461159e576040517fa114810000000000000000000000000000000000000000000000000000000000815260040160405180910390fd5b6001600160a01b0384166115de576040517fea553b3400000000000000000000000000000000000000000000000000000000815260040160405180910390fd5b6115ee6000848460000151611459565b6001600160a01b038581166000908152600560209081526040808320805467ffffffffffffffff1980821667ffffffffffffffff92831660001901831617909255898616808652838620805493841693831660019081018416949094179055898652600490945282852080546001600160e01b031916909417600160a01b4290921691909102179092559086018083529120549091166116da576000548110156116da578251600082815260046020908152604090912080549186015167ffffffffffffffff16600160a01b026001600160e01b03199092166001600160a01b03909316929092171790555b5082846001600160a01b0316866001600160a01b03167fddf252ad1be2c89b69c2b068fc378daa952ba7f163c4a11628f55a4df523b3ef60405160405180910390a45b5050505050565b6108fe828260405180602001604052806000815250611bea565b60408051606081018252600080825260208201819052918101919091528160005481101561184157600081815260046020908152604091829020825160608101845290546001600160a01b0381168252600160a01b810467ffffffffffffffff1692820192909252600160e01b90910460ff1615159181018290529061183f5780516001600160a01b0316156117d5579392505050565b5060001901600081815260046020908152604091829020825160608101845290546001600160a01b038116808352600160a01b820467ffffffffffffffff1693830193909352600160e01b900460ff161515928101929092521561183a579392505050565b6117d5565b505b6040517fdf2d9b4200000000000000000000000000000000000000000000000000000000815260040160405180910390fd5b600880546001600160a01b0383811673ffffffffffffffffffffffffffffffffffffffff19831681179093556040519116919082907f8be0079c531659141344cd1fd0a4f28419497f9722a3daafe3b4186f6b6457e090600090a35050565b604051630a85bd0160e11b81526000906001600160a01b0385169063150b7a0290611907903390899088908890600401612629565b602060405180830381600087803b15801561192157600080fd5b505af1925050508015611951575060408051601f3d908101601f1916820190925261194e9181019061248e565b60015b6119ac573d80801561197f576040519150601f19603f3d011682016040523d82523d6000602084013e611984565b606091505b5080516119a4576040516368d2bf6b60e11b815260040160405180910390fd5b805181602001fd5b6001600160e01b031916630a85bd0160e11b1490505b949350505050565b6060600e80546106089061272e565b606081611a1957505060408051808201909152600181527f3000000000000000000000000000000000000000000000000000000000000000602082015290565b8160005b8115611a435780611a2d81612769565b9150611a3c9050600a836126b8565b9150611a1d565b60008167ffffffffffffffff811115611a6c57634e487b7160e01b600052604160045260246000fd5b6040519080825280601f01601f191660200182016040528015611a96576020820181803683370190505b5090505b84156119c257611aab6001836126eb565b9150611ab8600a86612784565b611ac39060306126a0565b60f81b818381518110611ae657634e487b7160e01b600052603260045260246000fd5b60200101907effffffffffffffffffffffffffffffffffffffffffffffffffffffffffffff1916908160001a905350611b20600a866126b8565b9450611a9a565b6000611bbf84848080601f016020809104026020016040519081016040528093929190818152602001838380828437600092019190915250506040517f19457468657265756d205369676e6564204d6573736167653a0a333200000000602082015233603c820152605c019150611b9b9050565b60405160208183030381529060405280519060200120611bf790919063ffffffff16565b6001600160a01b0316826001600160a01b03161415611be057506001611182565b5060009392505050565b6107a38383836001611c1b565b6000806000611c068585611e2e565b91509150611c1381611e9e565b509392505050565b6000546001600160a01b038516611c5e576040517f2e07630000000000000000000000000000000000000000000000000000000000815260040160405180910390fd5b83611c95576040517fb562e8dd00000000000000000000000000000000000000000000000000000000815260040160405180910390fd5b6001600160a01b038516600081815260056020908152604080832080547fffffffffffffffffffffffffffffffff00000000000000000000000000000000811667ffffffffffffffff8083168c0181169182176801000000000000000067ffffffffffffffff1990941690921783900481168c01811690920217909155858452600490925290912080546001600160e01b031916909217600160a01b429092169190910217905580808501838015611d5657506001600160a01b0387163b15155b15611ddf575b60405182906001600160a01b038916906000907fddf252ad1be2c89b69c2b068fc378daa952ba7f163c4a11628f55a4df523b3ef908290a4611da760008884806001019550886118d2565b611dc4576040516368d2bf6b60e11b815260040160405180910390fd5b80821415611d5c578260005414611dda57600080fd5b611e25565b5b6040516001830192906001600160a01b038916906000907fddf252ad1be2c89b69c2b068fc378daa952ba7f163c4a11628f55a4df523b3ef908290a480821415611de0575b5060005561171d565b600080825160411415611e655760208301516040840151606085015160001a611e598782858561209f565b94509450505050611e97565b825160401415611e8f5760208301516040840151611e8486838361218c565b935093505050611e97565b506000905060025b9250929050565b6000816004811115611ec057634e487b7160e01b600052602160045260246000fd5b1415611ec95750565b6001816004811115611eeb57634e487b7160e01b600052602160045260246000fd5b1415611f395760405162461bcd60e51b815260206004820152601860248201527f45434453413a20696e76616c6964207369676e617475726500000000000000006044820152606401610823565b6002816004811115611f5b57634e487b7160e01b600052602160045260246000fd5b1415611fa95760405162461bcd60e51b815260206004820152601f60248201527f45434453413a20696e76616c6964207369676e6174757265206c656e677468006044820152606401610823565b6003816004811115611fcb57634e487b7160e01b600052602160045260246000fd5b14156120245760405162461bcd60e51b815260206004820152602260248201527f45434453413a20696e76616c6964207369676e6174757265202773272076616c604482015261756560f01b6064820152608401610823565b600481600481111561204657634e487b7160e01b600052602160045260246000fd5b141561142b5760405162461bcd60e51b815260206004820152602260248201527f45434453413a20696e76616c6964207369676e6174757265202776272076616c604482015261756560f01b6064820152608401610823565b6000807f7fffffffffffffffffffffffffffffff5d576e7357a4501ddfe92f46681b20a08311156120d65750600090506003612183565b8460ff16601b141580156120ee57508460ff16601c14155b156120ff5750600090506004612183565b6040805160008082526020820180845289905260ff881692820192909252606081018690526080810185905260019060a0016020604051602081039080840390855afa158015612153573d6000803e3d6000fd5b5050604051601f1901519150506001600160a01b03811661217c57600060019250925050612183565b9150600090505b94509492505050565b6000807f7fffffffffffffffffffffffffffffffffffffffffffffffffffffffffffffff8316816121c260ff86901c601b6126a0565b90506121d08782888561209f565b935093505050935093915050565b8280546121ea9061272e565b90600052602060002090601f01602090048101928261220c5760008555612252565b82601f1061222557805160ff1916838001178555612252565b82800160010185558215612252579182015b82811115612252578251825591602001919060010190612237565b5061225e929150612262565b5090565b5b8082111561225e5760008155600101612263565b600067ffffffffffffffff80841115612292576122926127c4565b604051601f8501601f19908116603f011681019082821181831017156122ba576122ba6127c4565b816040528093508581528686860111156122d357600080fd5b858560208301376000602087830101525050509392505050565b6000602082840312156122fe578081fd5b8135611182816127da565b6000806040838503121561231b578081fd5b8235612326816127da565b91506020830135612336816127da565b809150509250929050565b600080600060608486031215612355578081fd5b8335612360816127da565b92506020840135612370816127da565b929592945050506040919091013590565b60008060008060808587031215612396578081fd5b84356123a1816127da565b935060208501356123b1816127da565b925060408501359150606085013567ffffffffffffffff8111156123d3578182fd5b8501601f810187136123e3578182fd5b6123f287823560208401612277565b91505092959194509250565b60008060408385031215612410578182fd5b823561241b816127da565b91506020830135612336816127ef565b6000806040838503121561243d578182fd5b8235612448816127da565b946020939093013593505050565b600060208284031215612467578081fd5b8151611182816127ef565b600060208284031215612483578081fd5b8135611182816127fd565b60006020828403121561249f578081fd5b8151611182816127fd565b600080602083850312156124bc578182fd5b823567ffffffffffffffff808211156124d3578384fd5b818501915085601f8301126124e6578384fd5b8135818111156124f4578485fd5b866020828501011115612505578485fd5b60209290920196919550909350505050565b600060208284031215612528578081fd5b813560028110611182578182fd5b600060208284031215612547578081fd5b813567ffffffffffffffff81111561255d578182fd5b8201601f8101841361256d578182fd5b6119c284823560208401612277565b60006020828403121561258d578081fd5b813561ffff81168114611182578182fd5b6000602082840312156125af578081fd5b5035919050565b6000602082840312156125c7578081fd5b5051919050565b600081518084526125e6816020860160208601612702565b601f01601f19169290920160200192915050565b6000835161260c818460208801612702565b835190830190612620818360208801612702565b01949350505050565b60006001600160a01b0380871683528086166020840152508360408301526080606083015261265b60808301846125ce565b9695505050505050565b602081016002831061268757634e487b7160e01b600052602160045260246000fd5b91905290565b60208152600061118260208301846125ce565b600082198211156126b3576126b3612798565b500190565b6000826126c7576126c76127ae565b500490565b60008160001904831182151516156126e6576126e6612798565b500290565b6000828210156126fd576126fd612798565b500390565b60005b8381101561271d578181015183820152602001612705565b8381111561106a5750506000910152565b600181811c9082168061274257607f821691505b6020821081141561276357634e487b7160e01b600052602260045260246000fd5b50919050565b600060001982141561277d5761277d612798565b5060010190565b600082612793576127936127ae565b500690565b634e487b7160e01b600052601160045260246000fd5b634e487b7160e01b600052601260045260246000fd5b634e487b7160e01b600052604160045260246000fd5b6001600160a01b038116811461142b57600080fd5b801515811461142b57600080fd5b6001600160e01b03198116811461142b57600080fdfea264697066735822122040b1978d5d98fd931154443625341e539c7d9e956428ca71da603b0bf7b221b464736f6c6343000804003368747470733a2f2f73616c616864696e657061726e617373652e6172742f7265736f6c7665722f7265736f6c7665722f30",
  "linkReferences": {},
  "deployedLinkReferences": {}
}