{
  "_format": "hh-sol-artifact-1",
  "contractName": "NftExample",
  "sourceName": "contracts/ERC721NFT.sol",
  "abi": [
    {
      "inputs": [],
      "stateMutability": "nonpayable",
      "type": "constructor"
    },
    {
      "anonymous": false,
      "inputs": [
        {
          "indexed": true,
          "internalType": "address",
          "name": "owner",
          "type": "address"
        },
        {
          "indexed": true,
          "internalType": "address",
          "name": "approved",
          "type": "address"
        },
        {
          "indexed": true,
          "internalType": "uint256",
          "name": "tokenId",
          "type": "uint256"
        }
      ],
      "name": "Approval",
      "type": "event"
    },
    {
      "anonymous": false,
      "inputs": [
        {
          "indexed": true,
          "internalType": "address",
          "name": "owner",
          "type": "address"
        },
        {
          "indexed": true,
          "internalType": "address",
          "name": "operator",
          "type": "address"
        },
        {
          "indexed": false,
          "internalType": "bool",
          "name": "approved",
          "type": "bool"
        }
      ],
      "name": "ApprovalForAll",
      "type": "event"
    },
    {
      "anonymous": false,
      "inputs": [
        {
          "indexed": true,
          "internalType": "address",
          "name": "previousOwner",
          "type": "address"
        },
        {
          "indexed": true,
          "internalType": "address",
          "name": "newOwner",
          "type": "address"
        }
      ],
      "name": "OwnershipTransferred",
      "type": "event"
    },
    {
      "anonymous": false,
      "inputs": [
        {
          "indexed": true,
          "internalType": "address",
          "name": "from",
          "type": "address"
        },
        {
          "indexed": true,
          "internalType": "address",
          "name": "to",
          "type": "address"
        },
        {
          "indexed": true,
          "internalType": "uint256",
          "name": "tokenId",
          "type": "uint256"
        }
      ],
      "name": "Transfer",
      "type": "event"
    },
    {
      "inputs": [
        {
          "internalType": "address",
          "name": "to",
          "type": "address"
        },
        {
          "internalType": "uint256",
          "name": "tokenId",
          "type": "uint256"
        }
      ],
      "name": "approve",
      "outputs": [],
      "stateMutability": "nonpayable",
      "type": "function"
    },
    {
      "inputs": [
        {
          "internalType": "address",
          "name": "owner",
          "type": "address"
        }
      ],
      "name": "balanceOf",
      "outputs": [
        {
          "internalType": "uint256",
          "name": "",
          "type": "uint256"
        }
      ],
      "stateMutability": "view",
      "type": "function"
    },
    {
      "inputs": [],
      "name": "baseExtension",
      "outputs": [
        {
          "internalType": "string",
          "name": "",
          "type": "string"
        }
      ],
      "stateMutability": "view",
      "type": "function"
    },
    {
      "inputs": [],
      "name": "cost",
      "outputs": [
        {
          "internalType": "uint256",
          "name": "",
          "type": "uint256"
        }
      ],
      "stateMutability": "view",
      "type": "function"
    },
    {
      "inputs": [
        {
          "internalType": "uint256",
          "name": "tokenId",
          "type": "uint256"
        }
      ],
      "name": "getApproved",
      "outputs": [
        {
          "internalType": "address",
          "name": "",
          "type": "address"
        }
      ],
      "stateMutability": "view",
      "type": "function"
    },
    {
      "inputs": [
        {
          "internalType": "address",
          "name": "owner",
          "type": "address"
        },
        {
          "internalType": "address",
          "name": "operator",
          "type": "address"
        }
      ],
      "name": "isApprovedForAll",
      "outputs": [
        {
          "internalType": "bool",
          "name": "",
          "type": "bool"
        }
      ],
      "stateMutability": "view",
      "type": "function"
    },
    {
      "inputs": [],
      "name": "maxSupply",
      "outputs": [
        {
          "internalType": "uint256",
          "name": "",
          "type": "uint256"
        }
      ],
      "stateMutability": "view",
      "type": "function"
    },
    {
      "inputs": [
        {
          "internalType": "address",
          "name": "_to",
          "type": "address"
        }
      ],
      "name": "mintToken",
      "outputs": [],
      "stateMutability": "payable",
      "type": "function"
    },
    {
      "inputs": [],
      "name": "name",
      "outputs": [
        {
          "internalType": "string",
          "name": "",
          "type": "string"
        }
      ],
      "stateMutability": "view",
      "type": "function"
    },
    {
      "inputs": [],
      "name": "owner",
      "outputs": [
        {
          "internalType": "address",
          "name": "",
          "type": "address"
        }
      ],
      "stateMutability": "view",
      "type": "function"
    },
    {
      "inputs": [
        {
          "internalType": "uint256",
          "name": "tokenId",
          "type": "uint256"
        }
      ],
      "name": "ownerOf",
      "outputs": [
        {
          "internalType": "address",
          "name": "",
          "type": "address"
        }
      ],
      "stateMutability": "view",
      "type": "function"
    },
    {
      "inputs": [],
      "name": "renounceOwnership",
      "outputs": [],
      "stateMutability": "nonpayable",
      "type": "function"
    },
    {
      "inputs": [
        {
          "internalType": "address",
          "name": "from",
          "type": "address"
        },
        {
          "internalType": "address",
          "name": "to",
          "type": "address"
        },
        {
          "internalType": "uint256",
          "name": "tokenId",
          "type": "uint256"
        }
      ],
      "name": "safeTransferFrom",
      "outputs": [],
      "stateMutability": "nonpayable",
      "type": "function"
    },
    {
      "inputs": [
        {
          "internalType": "address",
          "name": "from",
          "type": "address"
        },
        {
          "internalType": "address",
          "name": "to",
          "type": "address"
        },
        {
          "internalType": "uint256",
          "name": "tokenId",
          "type": "uint256"
        },
        {
          "internalType": "bytes",
          "name": "data",
          "type": "bytes"
        }
      ],
      "name": "safeTransferFrom",
      "outputs": [],
      "stateMutability": "nonpayable",
      "type": "function"
    },
    {
      "inputs": [],
      "name": "saleIsActive",
      "outputs": [
        {
          "internalType": "bool",
          "name": "",
          "type": "bool"
        }
      ],
      "stateMutability": "view",
      "type": "function"
    },
    {
      "inputs": [
        {
          "internalType": "address",
          "name": "operator",
          "type": "address"
        },
        {
          "internalType": "bool",
          "name": "approved",
          "type": "bool"
        }
      ],
      "name": "setApprovalForAll",
      "outputs": [],
      "stateMutability": "nonpayable",
      "type": "function"
    },
    {
      "inputs": [
        {
          "internalType": "string",
          "name": "_newBaseURI",
          "type": "string"
        }
      ],
      "name": "setBaseURI",
      "outputs": [],
      "stateMutability": "nonpayable",
      "type": "function"
    },
    {
      "inputs": [
        {
          "internalType": "uint256",
          "name": "_newCost",
          "type": "uint256"
        }
      ],
      "name": "setCost",
      "outputs": [],
      "stateMutability": "nonpayable",
      "type": "function"
    },
    {
      "inputs": [
        {
          "internalType": "bytes4",
          "name": "interfaceId",
          "type": "bytes4"
        }
      ],
      "name": "supportsInterface",
      "outputs": [
        {
          "internalType": "bool",
          "name": "",
          "type": "bool"
        }
      ],
      "stateMutability": "view",
      "type": "function"
    },
    {
      "inputs": [],
      "name": "symbol",
      "outputs": [
        {
          "internalType": "string",
          "name": "",
          "type": "string"
        }
      ],
      "stateMutability": "view",
      "type": "function"
    },
    {
      "inputs": [
        {
          "internalType": "uint256",
          "name": "tokenId",
          "type": "uint256"
        }
      ],
      "name": "tokenURI",
      "outputs": [
        {
          "internalType": "string",
          "name": "",
          "type": "string"
        }
      ],
      "stateMutability": "view",
      "type": "function"
    },
    {
      "inputs": [
        {
          "internalType": "address",
          "name": "from",
          "type": "address"
        },
        {
          "internalType": "address",
          "name": "to",
          "type": "address"
        },
        {
          "internalType": "uint256",
          "name": "tokenId",
          "type": "uint256"
        }
      ],
      "name": "transferFrom",
      "outputs": [],
      "stateMutability": "nonpayable",
      "type": "function"
    },
    {
      "inputs": [
        {
          "internalType": "address",
          "name": "newOwner",
          "type": "address"
        }
      ],
      "name": "transferOwnership",
      "outputs": [],
      "stateMutability": "nonpayable",
      "type": "function"
    },
    {
      "inputs": [],
      "name": "withdraw",
      "outputs": [],
      "stateMutability": "nonpayable",
      "type": "function"
    }
  ],
  "bytecode": "0x60806040526040518060400160405280600581526020017f2e6a736f6e000000000000000000000000000000000000000000000000000000815250600990816200004a91906200047e565b506002600a556007600b556001600c60006101000a81548160ff0219169083151502179055503480156200007d57600080fd5b506040518060400160405280600b81526020017f4e46542d4578616d706c650000000000000000000000000000000000000000008152506040518060400160405280600381526020017f4e455800000000000000000000000000000000000000000000000000000000008152508160009081620000fb91906200047e565b5080600190816200010d91906200047e565b50505062000130620001246200013660201b60201c565b6200013e60201b60201c565b62000565565b600033905090565b6000600760009054906101000a900473ffffffffffffffffffffffffffffffffffffffff16905081600760006101000a81548173ffffffffffffffffffffffffffffffffffffffff021916908373ffffffffffffffffffffffffffffffffffffffff1602179055508173ffffffffffffffffffffffffffffffffffffffff168173ffffffffffffffffffffffffffffffffffffffff167f8be0079c531659141344cd1fd0a4f28419497f9722a3daafe3b4186f6b6457e060405160405180910390a35050565b600081519050919050565b7f4e487b7100000000000000000000000000000000000000000000000000000000600052604160045260246000fd5b7f4e487b7100000000000000000000000000000000000000000000000000000000600052602260045260246000fd5b600060028204905060018216806200028657607f821691505b6020821081036200029c576200029b6200023e565b5b50919050565b60008190508160005260206000209050919050565b60006020601f8301049050919050565b600082821b905092915050565b600060088302620003067fffffffffffffffffffffffffffffffffffffffffffffffffffffffffffffffff82620002c7565b620003128683620002c7565b95508019841693508086168417925050509392505050565b6000819050919050565b6000819050919050565b60006200035f6200035962000353846200032a565b62000334565b6200032a565b9050919050565b6000819050919050565b6200037b836200033e565b620003936200038a8262000366565b848454620002d4565b825550505050565b600090565b620003aa6200039b565b620003b781848462000370565b505050565b5b81811015620003df57620003d3600082620003a0565b600181019050620003bd565b5050565b601f8211156200042e57620003f881620002a2565b6200040384620002b7565b8101602085101562000413578190505b6200042b6200042285620002b7565b830182620003bc565b50505b505050565b600082821c905092915050565b6000620004536000198460080262000433565b1980831691505092915050565b60006200046e838362000440565b9150826002028217905092915050565b620004898262000204565b67ffffffffffffffff811115620004a557620004a46200020f565b5b620004b182546200026d565b620004be828285620003e3565b600060209050601f831160018114620004f65760008415620004e1578287015190505b620004ed858262000460565b8655506200055d565b601f1984166200050686620002a2565b60005b82811015620005305784890151825560018201915060208501945060208101905062000509565b868310156200055057848901516200054c601f89168262000440565b8355505b6001600288020188555050505b505050505050565b61346680620005756000396000f3fe60806040526004361061014b5760003560e01c806370a08231116100b6578063c66828621161006f578063c668286214610459578063c87b56dd14610484578063d5abeb01146104c1578063e985e9c5146104ec578063eb8d244414610529578063f2fde38b146105545761014b565b806370a082311461035d578063715018a61461039a5780638da5cb5b146103b157806395d89b41146103dc578063a22cb46514610407578063b88d4fde146104305761014b565b806323b872dd1161010857806323b872dd146102655780633ccfd60b1461028e57806342842e0e146102a557806344a0d68a146102ce57806355f804b3146102f75780636352211e146103205761014b565b806301173a741461015057806301ffc9a71461016c57806306fdde03146101a9578063081812fc146101d4578063095ea7b31461021157806313faede61461023a575b600080fd5b61016a60048036038101906101659190611ff2565b61057d565b005b34801561017857600080fd5b50610193600480360381019061018e9190612077565b610688565b6040516101a091906120bf565b60405180910390f35b3480156101b557600080fd5b506101be61076a565b6040516101cb919061216a565b60405180910390f35b3480156101e057600080fd5b506101fb60048036038101906101f691906121c2565b6107fc565b60405161020891906121fe565b60405180910390f35b34801561021d57600080fd5b5061023860048036038101906102339190612219565b610842565b005b34801561024657600080fd5b5061024f610959565b60405161025c9190612268565b60405180910390f35b34801561027157600080fd5b5061028c60048036038101906102879190612283565b61095f565b005b34801561029a57600080fd5b506102a36109bf565b005b3480156102b157600080fd5b506102cc60048036038101906102c79190612283565b610a10565b005b3480156102da57600080fd5b506102f560048036038101906102f091906121c2565b610a30565b005b34801561030357600080fd5b5061031e6004803603810190610319919061240b565b610a42565b005b34801561032c57600080fd5b50610347600480360381019061034291906121c2565b610a5d565b60405161035491906121fe565b60405180910390f35b34801561036957600080fd5b50610384600480360381019061037f9190611ff2565b610ae3565b6040516103919190612268565b60405180910390f35b3480156103a657600080fd5b506103af610b9a565b005b3480156103bd57600080fd5b506103c6610bae565b6040516103d391906121fe565b60405180910390f35b3480156103e857600080fd5b506103f1610bd8565b6040516103fe919061216a565b60405180910390f35b34801561041357600080fd5b5061042e60048036038101906104299190612480565b610c6a565b005b34801561043c57600080fd5b5061045760048036038101906104529190612561565b610c80565b005b34801561046557600080fd5b5061046e610ce2565b60405161047b919061216a565b60405180910390f35b34801561049057600080fd5b506104ab60048036038101906104a691906121c2565b610d70565b6040516104b8919061216a565b60405180910390f35b3480156104cd57600080fd5b506104d6610df8565b6040516104e39190612268565b60405180910390f35b3480156104f857600080fd5b50610513600480360381019061050e91906125e4565b610dfe565b60405161052091906120bf565b60405180910390f35b34801561053557600080fd5b5061053e610e92565b60405161054b91906120bf565b60405180910390f35b34801561056057600080fd5b5061057b60048036038101906105769190611ff2565b610ea5565b005b6000600161058b6008610f28565b6105959190612653565b9050600c60009054906101000a900460ff166105e6576040517f08c379a00000000000000000000000000000000000000000000000000000000081526004016105dd906126f9565b60405180910390fd5b600b5481111561062b576040517f08c379a00000000000000000000000000000000000000000000000000000000081526004016106229061278b565b60405180910390fd5b600a54341015610670576040517f08c379a0000000000000000000000000000000000000000000000000000000008152600401610667906127f7565b60405180910390fd5b61067a8282610f36565b6106846008611153565b5050565b60007f80ac58cd000000000000000000000000000000000000000000000000000000007bffffffffffffffffffffffffffffffffffffffffffffffffffffffff1916827bffffffffffffffffffffffffffffffffffffffffffffffffffffffff1916148061075357507f5b5e139f000000000000000000000000000000000000000000000000000000007bffffffffffffffffffffffffffffffffffffffffffffffffffffffff1916827bffffffffffffffffffffffffffffffffffffffffffffffffffffffff1916145b80610763575061076282611169565b5b9050919050565b60606000805461077990612846565b80601f01602080910402602001604051908101604052809291908181526020018280546107a590612846565b80156107f25780601f106107c7576101008083540402835291602001916107f2565b820191906000526020600020905b8154815290600101906020018083116107d557829003601f168201915b5050505050905090565b6000610807826111d3565b6004600083815260200190815260200160002060009054906101000a900473ffffffffffffffffffffffffffffffffffffffff169050919050565b600061084d82610a5d565b90508073ffffffffffffffffffffffffffffffffffffffff168373ffffffffffffffffffffffffffffffffffffffff16036108bd576040517f08c379a00000000000000000000000000000000000000000000000000000000081526004016108b4906128e9565b60405180910390fd5b8073ffffffffffffffffffffffffffffffffffffffff166108dc61121e565b73ffffffffffffffffffffffffffffffffffffffff16148061090b575061090a8161090561121e565b610dfe565b5b61094a576040517f08c379a00000000000000000000000000000000000000000000000000000000081526004016109419061297b565b60405180910390fd5b6109548383611226565b505050565b600a5481565b61097061096a61121e565b826112df565b6109af576040517f08c379a00000000000000000000000000000000000000000000000000000000081526004016109a690612a0d565b60405180910390fd5b6109ba838383611374565b505050565b6109c761166d565b3373ffffffffffffffffffffffffffffffffffffffff166108fc479081150290604051600060405180830381858888f19350505050158015610a0d573d6000803e3d6000fd5b50565b610a2b83838360405180602001604052806000815250610c80565b505050565b610a3861166d565b80600a8190555050565b610a4a61166d565b80600d9081610a599190612bd9565b5050565b600080610a69836116eb565b9050600073ffffffffffffffffffffffffffffffffffffffff168173ffffffffffffffffffffffffffffffffffffffff1603610ada576040517f08c379a0000000000000000000000000000000000000000000000000000000008152600401610ad190612cf7565b60405180910390fd5b80915050919050565b60008073ffffffffffffffffffffffffffffffffffffffff168273ffffffffffffffffffffffffffffffffffffffff1603610b53576040517f08c379a0000000000000000000000000000000000000000000000000000000008152600401610b4a90612d89565b60405180910390fd5b600360008373ffffffffffffffffffffffffffffffffffffffff1673ffffffffffffffffffffffffffffffffffffffff168152602001908152602001600020549050919050565b610ba261166d565b610bac6000611728565b565b6000600760009054906101000a900473ffffffffffffffffffffffffffffffffffffffff16905090565b606060018054610be790612846565b80601f0160208091040260200160405190810160405280929190818152602001828054610c1390612846565b8015610c605780601f10610c3557610100808354040283529160200191610c60565b820191906000526020600020905b815481529060010190602001808311610c4357829003601f168201915b5050505050905090565b610c7c610c7561121e565b83836117ee565b5050565b610c91610c8b61121e565b836112df565b610cd0576040517f08c379a0000000000000000000000000000000000000000000000000000000008152600401610cc790612a0d565b60405180910390fd5b610cdc8484848461195a565b50505050565b60098054610cef90612846565b80601f0160208091040260200160405190810160405280929190818152602001828054610d1b90612846565b8015610d685780601f10610d3d57610100808354040283529160200191610d68565b820191906000526020600020905b815481529060010190602001808311610d4b57829003601f168201915b505050505081565b6060610d7b826119b6565b610dba576040517f08c379a0000000000000000000000000000000000000000000000000000000008152600401610db190612e1b565b60405180910390fd5b6000610dc46119f7565b905080610dd084611a89565b604051602001610de1929190612ec3565b604051602081830303815290604052915050919050565b600b5481565b6000600560008473ffffffffffffffffffffffffffffffffffffffff1673ffffffffffffffffffffffffffffffffffffffff16815260200190815260200160002060008373ffffffffffffffffffffffffffffffffffffffff1673ffffffffffffffffffffffffffffffffffffffff16815260200190815260200160002060009054906101000a900460ff16905092915050565b600c60009054906101000a900460ff1681565b610ead61166d565b600073ffffffffffffffffffffffffffffffffffffffff168173ffffffffffffffffffffffffffffffffffffffff1603610f1c576040517f08c379a0000000000000000000000000000000000000000000000000000000008152600401610f1390612f64565b60405180910390fd5b610f2581611728565b50565b600081600001549050919050565b600073ffffffffffffffffffffffffffffffffffffffff168273ffffffffffffffffffffffffffffffffffffffff1603610fa5576040517f08c379a0000000000000000000000000000000000000000000000000000000008152600401610f9c90612fd0565b60405180910390fd5b610fae816119b6565b15610fee576040517f08c379a0000000000000000000000000000000000000000000000000000000008152600401610fe59061303c565b60405180910390fd5b610ffc600083836001611b57565b611005816119b6565b15611045576040517f08c379a000000000000000000000000000000000000000000000000000000000815260040161103c9061303c565b60405180910390fd5b6001600360008473ffffffffffffffffffffffffffffffffffffffff1673ffffffffffffffffffffffffffffffffffffffff16815260200190815260200160002060008282540192505081905550816002600083815260200190815260200160002060006101000a81548173ffffffffffffffffffffffffffffffffffffffff021916908373ffffffffffffffffffffffffffffffffffffffff160217905550808273ffffffffffffffffffffffffffffffffffffffff16600073ffffffffffffffffffffffffffffffffffffffff167fddf252ad1be2c89b69c2b068fc378daa952ba7f163c4a11628f55a4df523b3ef60405160405180910390a461114f600083836001611c7d565b5050565b6001816000016000828254019250508190555050565b60007f01ffc9a7000000000000000000000000000000000000000000000000000000007bffffffffffffffffffffffffffffffffffffffffffffffffffffffff1916827bffffffffffffffffffffffffffffffffffffffffffffffffffffffff1916149050919050565b6111dc816119b6565b61121b576040517f08c379a000000000000000000000000000000000000000000000000000000000815260040161121290612cf7565b60405180910390fd5b50565b600033905090565b816004600083815260200190815260200160002060006101000a81548173ffffffffffffffffffffffffffffffffffffffff021916908373ffffffffffffffffffffffffffffffffffffffff160217905550808273ffffffffffffffffffffffffffffffffffffffff1661129983610a5d565b73ffffffffffffffffffffffffffffffffffffffff167f8c5be1e5ebec7d5bd14f71427d1e84f3dd0314c0f7b2291e5b200ac8c7c3b92560405160405180910390a45050565b6000806112eb83610a5d565b90508073ffffffffffffffffffffffffffffffffffffffff168473ffffffffffffffffffffffffffffffffffffffff16148061132d575061132c8185610dfe565b5b8061136b57508373ffffffffffffffffffffffffffffffffffffffff16611353846107fc565b73ffffffffffffffffffffffffffffffffffffffff16145b91505092915050565b8273ffffffffffffffffffffffffffffffffffffffff1661139482610a5d565b73ffffffffffffffffffffffffffffffffffffffff16146113ea576040517f08c379a00000000000000000000000000000000000000000000000000000000081526004016113e1906130ce565b60405180910390fd5b600073ffffffffffffffffffffffffffffffffffffffff168273ffffffffffffffffffffffffffffffffffffffff1603611459576040517f08c379a000000000000000000000000000000000000000000000000000000000815260040161145090613160565b60405180910390fd5b6114668383836001611b57565b8273ffffffffffffffffffffffffffffffffffffffff1661148682610a5d565b73ffffffffffffffffffffffffffffffffffffffff16146114dc576040517f08c379a00000000000000000000000000000000000000000000000000000000081526004016114d3906130ce565b60405180910390fd5b6004600082815260200190815260200160002060006101000a81549073ffffffffffffffffffffffffffffffffffffffff02191690556001600360008573ffffffffffffffffffffffffffffffffffffffff1673ffffffffffffffffffffffffffffffffffffffff168152602001908152602001600020600082825403925050819055506001600360008473ffffffffffffffffffffffffffffffffffffffff1673ffffffffffffffffffffffffffffffffffffffff16815260200190815260200160002060008282540192505081905550816002600083815260200190815260200160002060006101000a81548173ffffffffffffffffffffffffffffffffffffffff021916908373ffffffffffffffffffffffffffffffffffffffff160217905550808273ffffffffffffffffffffffffffffffffffffffff168473ffffffffffffffffffffffffffffffffffffffff167fddf252ad1be2c89b69c2b068fc378daa952ba7f163c4a11628f55a4df523b3ef60405160405180910390a46116688383836001611c7d565b505050565b61167561121e565b73ffffffffffffffffffffffffffffffffffffffff16611693610bae565b73ffffffffffffffffffffffffffffffffffffffff16146116e9576040517f08c379a00000000000000000000000000000000000000000000000000000000081526004016116e0906131cc565b60405180910390fd5b565b60006002600083815260200190815260200160002060009054906101000a900473ffffffffffffffffffffffffffffffffffffffff169050919050565b6000600760009054906101000a900473ffffffffffffffffffffffffffffffffffffffff16905081600760006101000a81548173ffffffffffffffffffffffffffffffffffffffff021916908373ffffffffffffffffffffffffffffffffffffffff1602179055508173ffffffffffffffffffffffffffffffffffffffff168173ffffffffffffffffffffffffffffffffffffffff167f8be0079c531659141344cd1fd0a4f28419497f9722a3daafe3b4186f6b6457e060405160405180910390a35050565b8173ffffffffffffffffffffffffffffffffffffffff168373ffffffffffffffffffffffffffffffffffffffff160361185c576040517f08c379a000000000000000000000000000000000000000000000000000000000815260040161185390613238565b60405180910390fd5b80600560008573ffffffffffffffffffffffffffffffffffffffff1673ffffffffffffffffffffffffffffffffffffffff16815260200190815260200160002060008473ffffffffffffffffffffffffffffffffffffffff1673ffffffffffffffffffffffffffffffffffffffff16815260200190815260200160002060006101000a81548160ff0219169083151502179055508173ffffffffffffffffffffffffffffffffffffffff168373ffffffffffffffffffffffffffffffffffffffff167f17307eab39ab6107e8899845ad3d59bd9653f200f220920489ca2b5937696c318360405161194d91906120bf565b60405180910390a3505050565b611965848484611374565b61197184848484611c83565b6119b0576040517f08c379a00000000000000000000000000000000000000000000000000000000081526004016119a7906132ca565b60405180910390fd5b50505050565b60008073ffffffffffffffffffffffffffffffffffffffff166119d8836116eb565b73ffffffffffffffffffffffffffffffffffffffff1614159050919050565b6060600d8054611a0690612846565b80601f0160208091040260200160405190810160405280929190818152602001828054611a3290612846565b8015611a7f5780601f10611a5457610100808354040283529160200191611a7f565b820191906000526020600020905b815481529060010190602001808311611a6257829003601f168201915b5050505050905090565b606060006001611a9884611e0a565b01905060008167ffffffffffffffff811115611ab757611ab66122e0565b5b6040519080825280601f01601f191660200182016040528015611ae95781602001600182028036833780820191505090505b509050600082602001820190505b600115611b4c578080600190039150507f3031323334353637383961626364656600000000000000000000000000000000600a86061a8153600a8581611b4057611b3f6132ea565b5b04945060008503611af7575b819350505050919050565b6001811115611c7757600073ffffffffffffffffffffffffffffffffffffffff168473ffffffffffffffffffffffffffffffffffffffff1614611beb5780600360008673ffffffffffffffffffffffffffffffffffffffff1673ffffffffffffffffffffffffffffffffffffffff1681526020019081526020016000206000828254611be39190613319565b925050819055505b600073ffffffffffffffffffffffffffffffffffffffff168373ffffffffffffffffffffffffffffffffffffffff1614611c765780600360008573ffffffffffffffffffffffffffffffffffffffff1673ffffffffffffffffffffffffffffffffffffffff1681526020019081526020016000206000828254611c6e9190612653565b925050819055505b5b50505050565b50505050565b6000611ca48473ffffffffffffffffffffffffffffffffffffffff16611f5d565b15611dfd578373ffffffffffffffffffffffffffffffffffffffff1663150b7a02611ccd61121e565b8786866040518563ffffffff1660e01b8152600401611cef94939291906133a2565b6020604051808303816000875af1925050508015611d2b57506040513d601f19601f82011682018060405250810190611d289190613403565b60015b611dad573d8060008114611d5b576040519150601f19603f3d011682016040523d82523d6000602084013e611d60565b606091505b506000815103611da5576040517f08c379a0000000000000000000000000000000000000000000000000000000008152600401611d9c906132ca565b60405180910390fd5b805181602001fd5b63150b7a0260e01b7bffffffffffffffffffffffffffffffffffffffffffffffffffffffff1916817bffffffffffffffffffffffffffffffffffffffffffffffffffffffff191614915050611e02565b600190505b949350505050565b600080600090507a184f03e93ff9f4daa797ed6e38ed64bf6a1f0100000000000000008310611e68577a184f03e93ff9f4daa797ed6e38ed64bf6a1f0100000000000000008381611e5e57611e5d6132ea565b5b0492506040810190505b6d04ee2d6d415b85acef81000000008310611ea5576d04ee2d6d415b85acef81000000008381611e9b57611e9a6132ea565b5b0492506020810190505b662386f26fc100008310611ed457662386f26fc100008381611eca57611ec96132ea565b5b0492506010810190505b6305f5e1008310611efd576305f5e1008381611ef357611ef26132ea565b5b0492506008810190505b6127108310611f22576127108381611f1857611f176132ea565b5b0492506004810190505b60648310611f455760648381611f3b57611f3a6132ea565b5b0492506002810190505b600a8310611f54576001810190505b80915050919050565b6000808273ffffffffffffffffffffffffffffffffffffffff163b119050919050565b6000604051905090565b600080fd5b600080fd5b600073ffffffffffffffffffffffffffffffffffffffff82169050919050565b6000611fbf82611f94565b9050919050565b611fcf81611fb4565b8114611fda57600080fd5b50565b600081359050611fec81611fc6565b92915050565b60006020828403121561200857612007611f8a565b5b600061201684828501611fdd565b91505092915050565b60007fffffffff0000000000000000000000000000000000000000000000000000000082169050919050565b6120548161201f565b811461205f57600080fd5b50565b6000813590506120718161204b565b92915050565b60006020828403121561208d5761208c611f8a565b5b600061209b84828501612062565b91505092915050565b60008115159050919050565b6120b9816120a4565b82525050565b60006020820190506120d460008301846120b0565b92915050565b600081519050919050565b600082825260208201905092915050565b60005b838110156121145780820151818401526020810190506120f9565b60008484015250505050565b6000601f19601f8301169050919050565b600061213c826120da565b61214681856120e5565b93506121568185602086016120f6565b61215f81612120565b840191505092915050565b600060208201905081810360008301526121848184612131565b905092915050565b6000819050919050565b61219f8161218c565b81146121aa57600080fd5b50565b6000813590506121bc81612196565b92915050565b6000602082840312156121d8576121d7611f8a565b5b60006121e6848285016121ad565b91505092915050565b6121f881611fb4565b82525050565b600060208201905061221360008301846121ef565b92915050565b600080604083850312156122305761222f611f8a565b5b600061223e85828601611fdd565b925050602061224f858286016121ad565b9150509250929050565b6122628161218c565b82525050565b600060208201905061227d6000830184612259565b92915050565b60008060006060848603121561229c5761229b611f8a565b5b60006122aa86828701611fdd565b93505060206122bb86828701611fdd565b92505060406122cc868287016121ad565b9150509250925092565b600080fd5b600080fd5b7f4e487b7100000000000000000000000000000000000000000000000000000000600052604160045260246000fd5b61231882612120565b810181811067ffffffffffffffff82111715612337576123366122e0565b5b80604052505050565b600061234a611f80565b9050612356828261230f565b919050565b600067ffffffffffffffff821115612376576123756122e0565b5b61237f82612120565b9050602081019050919050565b82818337600083830152505050565b60006123ae6123a98461235b565b612340565b9050828152602081018484840111156123ca576123c96122db565b5b6123d584828561238c565b509392505050565b600082601f8301126123f2576123f16122d6565b5b813561240284826020860161239b565b91505092915050565b60006020828403121561242157612420611f8a565b5b600082013567ffffffffffffffff81111561243f5761243e611f8f565b5b61244b848285016123dd565b91505092915050565b61245d816120a4565b811461246857600080fd5b50565b60008135905061247a81612454565b92915050565b6000806040838503121561249757612496611f8a565b5b60006124a585828601611fdd565b92505060206124b68582860161246b565b9150509250929050565b600067ffffffffffffffff8211156124db576124da6122e0565b5b6124e482612120565b9050602081019050919050565b60006125046124ff846124c0565b612340565b9050828152602081018484840111156125205761251f6122db565b5b61252b84828561238c565b509392505050565b600082601f830112612548576125476122d6565b5b81356125588482602086016124f1565b91505092915050565b6000806000806080858703121561257b5761257a611f8a565b5b600061258987828801611fdd565b945050602061259a87828801611fdd565b93505060406125ab878288016121ad565b925050606085013567ffffffffffffffff8111156125cc576125cb611f8f565b5b6125d887828801612533565b91505092959194509250565b600080604083850312156125fb576125fa611f8a565b5b600061260985828601611fdd565b925050602061261a85828601611fdd565b9150509250929050565b7f4e487b7100000000000000000000000000000000000000000000000000000000600052601160045260246000fd5b600061265e8261218c565b91506126698361218c565b925082820190508082111561268157612680612624565b5b92915050565b7f53616c65206d7573742062652061637469766520746f206d696e7420746f6b6560008201527f6e00000000000000000000000000000000000000000000000000000000000000602082015250565b60006126e36021836120e5565b91506126ee82612687565b604082019050919050565b60006020820190508181036000830152612712816126d6565b9050919050565b7f507572636861736520776f756c6420657863656564206d617820737570706c7960008201527f206f6620746f6b656e7300000000000000000000000000000000000000000000602082015250565b6000612775602a836120e5565b915061278082612719565b604082019050919050565b600060208201905081810360008301526127a481612768565b9050919050565b7f45746865722076616c75652073656e74206973206e6f7420636f727265637400600082015250565b60006127e1601f836120e5565b91506127ec826127ab565b602082019050919050565b60006020820190508181036000830152612810816127d4565b9050919050565b7f4e487b7100000000000000000000000000000000000000000000000000000000600052602260045260246000fd5b6000600282049050600182168061285e57607f821691505b60208210810361287157612870612817565b5b50919050565b7f4552433732313a20617070726f76616c20746f2063757272656e74206f776e6560008201527f7200000000000000000000000000000000000000000000000000000000000000602082015250565b60006128d36021836120e5565b91506128de82612877565b604082019050919050565b60006020820190508181036000830152612902816128c6565b9050919050565b7f4552433732313a20617070726f76652063616c6c6572206973206e6f7420746f60008201527f6b656e206f776e6572206f7220617070726f76656420666f7220616c6c000000602082015250565b6000612965603d836120e5565b915061297082612909565b604082019050919050565b6000602082019050818103600083015261299481612958565b9050919050565b7f4552433732313a2063616c6c6572206973206e6f7420746f6b656e206f776e6560008201527f72206f7220617070726f76656400000000000000000000000000000000000000602082015250565b60006129f7602d836120e5565b9150612a028261299b565b604082019050919050565b60006020820190508181036000830152612a26816129ea565b9050919050565b60008190508160005260206000209050919050565b60006020601f8301049050919050565b600082821b905092915050565b600060088302612a8f7fffffffffffffffffffffffffffffffffffffffffffffffffffffffffffffffff82612a52565b612a998683612a52565b95508019841693508086168417925050509392505050565b6000819050919050565b6000612ad6612ad1612acc8461218c565b612ab1565b61218c565b9050919050565b6000819050919050565b612af083612abb565b612b04612afc82612add565b848454612a5f565b825550505050565b600090565b612b19612b0c565b612b24818484612ae7565b505050565b5b81811015612b4857612b3d600082612b11565b600181019050612b2a565b5050565b601f821115612b8d57612b5e81612a2d565b612b6784612a42565b81016020851015612b76578190505b612b8a612b8285612a42565b830182612b29565b50505b505050565b600082821c905092915050565b6000612bb060001984600802612b92565b1980831691505092915050565b6000612bc98383612b9f565b9150826002028217905092915050565b612be2826120da565b67ffffffffffffffff811115612bfb57612bfa6122e0565b5b612c058254612846565b612c10828285612b4c565b600060209050601f831160018114612c435760008415612c31578287015190505b612c3b8582612bbd565b865550612ca3565b601f198416612c5186612a2d565b60005b82811015612c7957848901518255600182019150602085019450602081019050612c54565b86831015612c965784890151612c92601f891682612b9f565b8355505b6001600288020188555050505b505050505050565b7f4552433732313a20696e76616c696420746f6b656e2049440000000000000000600082015250565b6000612ce16018836120e5565b9150612cec82612cab565b602082019050919050565b60006020820190508181036000830152612d1081612cd4565b9050919050565b7f4552433732313a2061646472657373207a65726f206973206e6f74206120766160008201527f6c6964206f776e65720000000000000000000000000000000000000000000000602082015250565b6000612d736029836120e5565b9150612d7e82612d17565b604082019050919050565b60006020820190508181036000830152612da281612d66565b9050919050565b7f4552433732314d657461646174613a2055524920717565727920666f72206e6f60008201527f6e6578697374656e7420746f6b656e0000000000000000000000000000000000602082015250565b6000612e05602f836120e5565b9150612e1082612da9565b604082019050919050565b60006020820190508181036000830152612e3481612df8565b9050919050565b600081905092915050565b6000612e51826120da565b612e5b8185612e3b565b9350612e6b8185602086016120f6565b80840191505092915050565b7f2e6a736f6e000000000000000000000000000000000000000000000000000000600082015250565b6000612ead600583612e3b565b9150612eb882612e77565b600582019050919050565b6000612ecf8285612e46565b9150612edb8284612e46565b9150612ee682612ea0565b91508190509392505050565b7f4f776e61626c653a206e6577206f776e657220697320746865207a65726f206160008201527f6464726573730000000000000000000000000000000000000000000000000000602082015250565b6000612f4e6026836120e5565b9150612f5982612ef2565b604082019050919050565b60006020820190508181036000830152612f7d81612f41565b9050919050565b7f4552433732313a206d696e7420746f20746865207a65726f2061646472657373600082015250565b6000612fba6020836120e5565b9150612fc582612f84565b602082019050919050565b60006020820190508181036000830152612fe981612fad565b9050919050565b7f4552433732313a20746f6b656e20616c7265616479206d696e74656400000000600082015250565b6000613026601c836120e5565b915061303182612ff0565b602082019050919050565b6000602082019050818103600083015261305581613019565b9050919050565b7f4552433732313a207472616e736665722066726f6d20696e636f72726563742060008201527f6f776e6572000000000000000000000000000000000000000000000000000000602082015250565b60006130b86025836120e5565b91506130c38261305c565b604082019050919050565b600060208201905081810360008301526130e7816130ab565b9050919050565b7f4552433732313a207472616e7366657220746f20746865207a65726f2061646460008201527f7265737300000000000000000000000000000000000000000000000000000000602082015250565b600061314a6024836120e5565b9150613155826130ee565b604082019050919050565b600060208201905081810360008301526131798161313d565b9050919050565b7f4f776e61626c653a2063616c6c6572206973206e6f7420746865206f776e6572600082015250565b60006131b66020836120e5565b91506131c182613180565b602082019050919050565b600060208201905081810360008301526131e5816131a9565b9050919050565b7f4552433732313a20617070726f766520746f2063616c6c657200000000000000600082015250565b60006132226019836120e5565b915061322d826131ec565b602082019050919050565b6000602082019050818103600083015261325181613215565b9050919050565b7f4552433732313a207472616e7366657220746f206e6f6e20455243373231526560008201527f63656976657220696d706c656d656e7465720000000000000000000000000000602082015250565b60006132b46032836120e5565b91506132bf82613258565b604082019050919050565b600060208201905081810360008301526132e3816132a7565b9050919050565b7f4e487b7100000000000000000000000000000000000000000000000000000000600052601260045260246000fd5b60006133248261218c565b915061332f8361218c565b925082820390508181111561334757613346612624565b5b92915050565b600081519050919050565b600082825260208201905092915050565b60006133748261334d565b61337e8185613358565b935061338e8185602086016120f6565b61339781612120565b840191505092915050565b60006080820190506133b760008301876121ef565b6133c460208301866121ef565b6133d16040830185612259565b81810360608301526133e38184613369565b905095945050505050565b6000815190506133fd8161204b565b92915050565b60006020828403121561341957613418611f8a565b5b6000613427848285016133ee565b9150509291505056fea26469706673582212209b05ed7e21e98bba86a0b6a760984cc4fc61bd204e62bbe774ad06eb42f567ce64736f6c63430008110033",
  "linkReferences": {},
  "deployedLinkReferences": {}
}